:100000000C9498000C94C0000C94C0000C94C00098
:100010000C94C0000C94C0000C94A2020C94C0007C
:100020000C94C0000C94C0000C94C0000C94C00050
:100030000C94C0000C94C0000C94C0000C94C00040
:100040000C9485040C94C0000C949E060C94E1065C
:100050000C94C0000C94C0000C94C0000C94C00020
:100060000C94C0000C94C0002C20646174613D307D
:1000700078003A20627974652D61646472657373E7
:100080003D3078003A20776F72642D616464726548
:1000900073733D3078004E657874207265706F72AE
:1000A000743A20005361766564207265706F7274D3
:1000B000733A20002D2D2D2D2D2D2D2D2D2D2D2D57
:1000C0002D2D2D2D2D2D2D004170706C69636174C7
:1000D000696F6E204D6F6E69746F720000000007CB
:1000E0000002010000030406000000000000000000
:1000F00001020408102040800102040810200102BF
:10010000040810200404040404040404020202028B
:10011000020203030303030300000000250028007C
:100120002B0000000000240027002A0043039D0745
:1001300011241FBECFEFD8E0DEBFCDBF11E0A0E09D
:10014000B1E0E0E6F5E102C005900D92AE38B107EE
:10015000D9F712E0AEE8B1E001C01D92A135B107B8
:10016000E1F711E0C0E3D1E004C02297FE010E9454
:10017000940ACC32D107C9F70E94F9050C94AE0A53
:100180000C940000FC0171836083538342831682C8
:10019000178210861186089563FF02C088E201C0AD
:1001A00088E06770682B88E190E00FB6F894A89516
:1001B000809360000FBE6093600080916000806457
:1001C000809360000895A89508958F929F92AF92B2
:1001D000BF92CF92EF920F931F93CF93DF93EB01D8
:1001E00048015901BA01CE010E9431082E2D30E09C
:1001F000B501A401CE010E94EE08CC2069F0CE0129
:10020000DF91CF911F910F91EF90CF90BF90AF9062
:100210009F908F900C945D08DF91CF911F910F916B
:10022000EF90CF90BF90AF909F908F900895FC017A
:10023000208131812E5F3F4F82819381681779073A
:1002400014F0C901089546E0469FC001479F900DF4
:100250001124820F931F0895EF92FF920F931F9323
:10026000CF93DF931F92CDB7DEB78B017A01041BCA
:10027000150B215058F0C8018E0D9F1D29830E9437
:10028000980AF70181937F012981F3CF0F90DF91C5
:10029000CF911F910F91FF90EF9008950F931F93AF
:1002A000CF93DF938C01EB01FC016081718122E02F
:1002B000AE010E942C0128812F3F11F4188208C042
:1002C000F8018281938130E0821793070CF48883D0
:1002D000298130E0F80182819381281739070CF0D9
:1002E0001982DF91CF911F910F9108950F931F9362
:1002F000CF93DF938C01EA010E94170126E0AE0143
:10030000BC01C8010E942C0188819981988389834E
:10031000DF91CF911F910F9108957F928F929F92BD
:10032000AF92BF92CF92DF92EF92FF920F931F9303
:10033000CF93DF93CDB7DEB72D970FB6F894DEBF1E
:100340000FBECDBF4C015B01BE01655F7F4F4D8786
:100350000E944E014D85442321F08B85882309F4AA
:100360006DC068EC70E0C5010E94710864EB70E03C
:10037000C5010E9471080B8510E020E030E0CC241C
:10038000C3944AE0E42E44EA50E0B501C4010E945F
:10039000E5000C8510E020E030E046E950E0B501D2
:1003A000C4010E94E500712C8B85781608F046C0C8
:1003B000672D70E0AE014F5F5F4FC4010E94760170
:1003C0004AE050E0672DC5010E94FB081F82188695
:1003D00019861A8689819A8198878F83CF80D884DD
:1003E000E984FA8464E870E0C5010E94310820E1E4
:1003F00030E0B701A601C5010E94EE0862E770E097
:10040000C5010E943108B701A601440F551F661FA0
:10041000771F20E130E0C5010E94EE080B811C81AE
:100420002D813E81CC24C39490E1E92E48E650E032
:10043000B501C4010E94E5007394B6CF2D960FB6A6
:10044000F894DEBF0FBECDBFDF91CF911F910F910A
:10045000FF90EF90DF90CF90BF90AF909F908F90E4
:100460007F900895EF92FF920F931F93CF93DF93A6
:100470001F92CDB7DEB77B018A01260F2E1561F0E2
:10048000F80161918F01C70129830E94A00AFFEF43
:10049000EF1AFF0A2981F2CF0F90DF91CF911F91C0
:1004A0000F91FF90EF900895AB01FC016081718185
:1004B00022E00C943202CF93DF93EC010E941701EB
:1004C000AE014C5F5F4F26E0BC01CE01DF91CF91C2
:1004D0000C943202CF93DF9300D0CDB7DEB78C01FE
:1004E0007B01BE016F5F7F4F0E944E01F70180814B
:1004F0009181F801958384836A8170E0C8010E942C
:100500005B022A812F5F2A8330E0F8018281938188
:100510002817390714F01A8203C089818F5F8983F5
:10052000BE016F5F7F4FC8010E9454022BE088E13B
:1005300090E00FB6F894A895809360000FBE2093CA
:100540006000FFCF6DB77EB76F5F7F4F80E991E0AE
:100550000E946A02EF92FF920F931F93CF93DF9353
:1005600040E052EC61E070E083EA91E00E941C07F9
:100570008AE190E00E94F705EC018BE0E82EF12C77
:100580000AE010E029E030E048E050E068EC70E07C
:10059000CE010E944B03D0938F01C0938E0148EC93
:1005A00050E060E070E0CE010E94810341E063EA28
:1005B00071E080E991E00E948D0168E070E080E9DF
:1005C00091E0DF91CF911F910F91FF90EF900C94EC
:1005D000CC00CF92DF92EF92FF926B017C0161E041
:1005E0008CE00E94C10566E071E083EA91E00E9420
:1005F000830864E670E080E090E00E94FE0464E11D
:1006000071E083EA91E00E9483080E94CF04AB016D
:10061000BC012AE030E083EA91E00E94EE08B601D6
:1006200080918E0190918F010E94130462E271E02B
:1006300083EA91E00E94830860E371E083EA91E03D
:100640000E94830860E08CE00E94C10580E090E099
:10065000FF90EF90DF90CF90089580E991E00E94A5
:10066000E30061E771E083EA91E00E94830864EFB0
:1006700071E080E090E00E94FE0461E070E080E0C4
:1006800090E00C94E9024AE050E064EF71E080E908
:1006900091E00C94C200EF92FF920F931F93CF93BF
:1006A000DF93EC01842F1D861C861B821A8219821F
:1006B00018821E8A1F8A188E198E798768874E873E
:1006C0005F87398B288B1B8B0A8BFD8AEC8A61E054
:1006D0000E94880561E088890E94880561E08A8916
:1006E0000E94880561E08C890E94880584E090E082
:1006F0009B878A87DF91CF911F910F91FF90EF9099
:100700000895CF92DF92EF92FF92CF93DF93EC01A7
:100710006A017B0128853985442737FD4095542F90
:1007200060E67AEE80E090E00E945F0ACA01B901BB
:10073000A70196010E945F0A2C833D834E835F834D
:10074000DF91CF91FF90EF90DF90CF9008950F93BE
:100750001F93CF93DF93EC018B018A859B850297D2
:10076000F9F46130710571F02CF461157105C1F473
:1007700060E009C06230710559F06330710581F4A1
:1007800060E007C061E08E850E94C10561E005C0A0
:1007900061E08E850E94C10560E088890E94C105E4
:1007A0008A859B850497D1F501301105A9F044F4A1
:1007B000012BA1F561E08E850E94C10560E011C0AA
:1007C00002301105B9F00330110541F561E08E8565
:1007D0000E94C10560E013C060E08E850E94C105E3
:1007E00061E088890E94C10561E08A890E94C10593
:1007F00060E00DC060E08E850E94C10561E08889DF
:100800000E94C10560E08A890E94C10561E08C896F
:10081000DF91CF911F910F910C94C105DF91CF9182
:100820001F910F9108958F929F92AF92BF92EF9276
:10083000FF920F931F93CF93DF93EC018B0177FF10
:1008400004C000271127061B170B161617062CF4D9
:1008500081E090E09983888304C0672B11F01982AE
:10086000188284E0E82EF12C0115110509F442C02C
:100870000E94CF048E889F88A88CB98C681979094A
:100880008A099B098C809D80AE80BF8068157905A0
:100890008A059B0568F30E94CF046E8B7F8B888F3F
:1008A000998F288139818C859D852130310559F4B6
:1008B00001969D878C87288539858217930771F467
:1008C0001D861C860BC0892B21F4888599859D8700
:1008D0008C878C859D8501979D878C870150110998
:1008E0008C859D85B7010E94290ABC01CE010E941A
:1008F000A703BACFDF91CF911F910F91FF90EF9097
:10090000BF90AF909F908F9008951F920F920FB657
:100910000F9211242F933F938F939F93AF93BF9385
:1009200080919B0190919C01A0919D01B0919E01AD
:1009300030919A0123E0230F2D3720F40196A11D59
:10094000B11D05C026E8230F0296A11DB11D2093FD
:100950009A0180939B0190939C01A0939D01B09379
:100960009E0180919F019091A001A091A101B09161
:10097000A2010196A11DB11D80939F019093A0013A
:10098000A093A101B093A201BF91AF919F918F91CC
:100990003F912F910F900FBE0F901F9018952FB77A
:1009A000F89460919B0170919C0180919D019091C0
:1009B0009E012FBF08953FB7F89480919F019091B9
:1009C000A001A091A101B091A20126B5A89B05C0EC
:1009D0002F3F19F00196A11DB11D3FBF6627782F4B
:1009E000892F9A2F620F711D811D911D42E0660FA4
:1009F000771F881F991F4A95D1F70895CF92DF92EC
:100A0000EF92FF92CF93DF936B017C010E94DB0496
:100A1000EB01C114D104E104F10479F00E94DB047C
:100A20006C1B7D0B683E7340A0F381E0C81AD108AF
:100A3000E108F108C851DC4FECCFDF91CF91FF9076
:100A4000EF90DF90CF900895789484B5826084BD54
:100A500084B5816084BD85B5826085BD85B58160C2
:100A600085BDEEE6F0E0808181608083E1E8F0E022
:100A70001082808182608083808181608083E0E851
:100A8000F0E0808181608083E1EBF0E08081846030
:100A90008083E0EBF0E0808181608083EAE7F0E032
:100AA0008081846080838081826080838081816096
:100AB00080838081806880831092C1000895833094
:100AC00081F028F4813099F08230A1F008958630C9
:100AD000A9F08730B9F08430D1F4809180008F7D07
:100AE00003C0809180008F7780938000089584B543
:100AF0008F7702C084B58F7D84BD08958091B0004A
:100B00008F7703C08091B0008F7D8093B0000895EF
:100B1000CF93DF9390E0FC01E051FF4F2491FC0163
:100B2000EC5FFE4F8491882349F190E0880F991F74
:100B3000FC01EE5DFE4FA591B491885E9E4FFC01D5
:100B4000C591D4919FB7611108C0F8948C912095FC
:100B500082238C93888182230AC0623051F4F894F6
:100B60008C91322F309583238C938881822B8883BC
:100B700004C0F8948C91822B8C939FBFDF91CF910E
:100B800008950F931F93CF93DF931F92CDB7DEB7D6
:100B9000282F30E0F901E452FF4F8491F901E05130
:100BA000FF4F1491F901EC5FFE4F04910023C9F04F
:100BB000882321F069830E945F056981E02FF0E0BE
:100BC000EE0FFF1FE85EFE4FA591B4919FB7F8941A
:100BD0008C91611103C01095812301C0812B8C93EE
:100BE0009FBF0F90DF91CF911F910F9108950C94AB
:100BF00002090E9424050E94AA02C8EDD6E00E94C4
:100C00002D032097E1F30E94D806F9CFFC0124853B
:100C10003585F901E05CFF4F80819181F901EE5B40
:100C2000FF4F20813181821B930B8F739927089589
:100C3000FC0184859585FC01E05CFF4F408151817A
:100C4000FC01EE5BFF4F208131814217530741F0D9
:100C50000190F081E02DE80FF91F808190E0089568
:100C60008FEF9FEF0895FC0184859585FC01E05C82
:100C7000FF4F40815181FC01EE5BFF4F20813181AC
:100C80004217530779F0A081B181A80FB91F8C9149
:100C9000208131812F5F3F4F2F7333273183208392
:100CA00090E008958FEF9FEF0895FC0181A18823C4
:100CB00029F0A489B5898C9186FFFBCF11A20895F4
:100CC000CF93DF93FC0126853785D901A05CBF4F08
:100CD0008D919C91119701968F739927E901CE5BB5
:100CE000DF4F4881598184179507D9F30D90BC9146
:100CF000A02DA20FB31F6C93A685B785A05CBF4F34
:100D000011969C938E93A689B7892C9181E090E0EF
:100D1000078C02C0880F991F0A94E2F7282B2C93A6
:100D200081E081A30488F589E02D8081806480833F
:100D300081E090E0DF91CF91089508951F920F9286
:100D40000FB60F9211242F933F934F938F939F933E
:100D5000EF93FF938091C00082FD1CC04091C600BC
:100D60008091490290914A0201968F7399272091B0
:100D70004B0230914C028217930771F0E0914902C7
:100D8000F0914A02E75FFD4F408390934A028093BF
:100D9000490202C08091C600FF91EF919F918F910F
:100DA0004F913F912F910F900FBE0F901F9018956C
:100DB00083EA91E00E940606892B11F00C949D06AF
:100DC00008951F920F920FB60F9211242F933F9305
:100DD0008F939F93EF93FF9320910502309106022A
:100DE00080910702909108022817390731F4809109
:100DF000C1008F7D8093C10014C0E0910702F09183
:100E00000802EB53FE4F2081809107029091080267
:100E100001968F739927909308028093070220937D
:100E2000C600FF91EF919F918F913F912F910F906D
:100E30000FBE0F901F901895CF92DF92EF92FF9206
:100E4000CF93DF93EC016A017B01411581EE5807D6
:100E500061057105F9F0EC89FD8981E090E008A059
:100E600002C0880F991F0A94E2F7808360E079E05E
:100E70008DE390E0A70196010E943D0A21503109BF
:100E8000410951095695479537952795211580E1D8
:100E9000380798F0EC89FD89108260E874E88EE1EB
:100EA00090E0A70196010E943D0A215031094109B5
:100EB00051095695479537952795E889F9893083E3
:100EC000EA89FB89208319A2EE89FF89408181E0AC
:100ED00090E09C010C8C02C0220F331F0A94E2F7B1
:100EE000422B4083EE89FF8940819C010D8C02C01A
:100EF000220F331F0A94E2F7422B4083EE89FF89C9
:100F000040819C010E8C02C0220F331F0A94E2F72D
:100F1000422B4083EE89FF8920810F8C02C0880F0D
:100F2000991F0A94E2F7809582238083DF91CF9105
:100F3000FF90EF90DF90CF9008951092A60110924D
:100F4000A50188EE93E0A0E0B0E08093A701909324
:100F5000A801A093A901B093AA0182E891E090931F
:100F6000A4018093A30189E092E09093B001809363
:100F7000AF0185EC91E09093B2018093B10185ECD3
:100F800090E09093B4018093B30184EC90E090934F
:100F9000B6018093B50180EC90E09093B801809306
:100FA000B70181EC90E09093BA018093B90182EC93
:100FB00090E09093BC018093BB0186EC90E090930D
:100FC000BE018093BD0184E08093BF0183E08093E4
:100FD000C00187E08093C10185E08093C20181E078
:100FE0008093C3010895CF92DF92EF92FF920F9307
:100FF0001F93CF93DF936C017A01EB01E60EF71E8E
:1010000000E010E0CE15DF0561F06991D601ED91A9
:10101000FC910190F081E02DC6010995080F191F80
:10102000F1CFC801DF91CF911F910F91FF90EF9009
:10103000DF90CF9008956115710581F0DB010D906F
:101040000020E9F7AD0141505109461B570BDC0167
:10105000ED91FC910280F381E02D099480E090E015
:101060000895EF92FF920F931F93CF93DF938C011C
:10107000FB01C0E0D0E064917F018FEFE81AF80A2D
:10108000662361F0D801ED91FC910190F081E02D93
:10109000C8010995C80FD91FF701EDCFCE01DF9127
:1010A000CF911F910F91FF90EF900895DC01ED918A
:1010B000FC910190F081E02D09940F931F93CF9341
:1010C000DF93EC016DE00E9456088C016AE0CE01CE
:1010D0000E945608800F911FDF91CF911F910F91B1
:1010E00008950F931F93CF93DF93EC010E94310873
:1010F0008C01CE010E945D08800F911FDF91CF917E
:101100001F910F9108950F931F93CF93DF93EC01DD
:101110000E941B088C01CE010E945D08800F911F68
:10112000DF91CF911F910F9108958F929F92AF926F
:10113000BF92CF92DF92EF92FF920F931F93CF93C4
:10114000DF93CDB7DEB7A1970FB6F894DEBF0FBE21
:10115000CDBF7C01C42EE52FCB01D22E19A221E0F8
:101160002D1510F02AE0D22E8E010F5D1F4F8D2C11
:10117000912CA12CB12C6C2D7E2FA50194010E94E5
:101180003D0A8C2DD29E80191124015011098A30FC
:1011900014F4805D01C0895CF8018083211531055C
:1011A0004105510521F0C22EE32FCA01E4CFB80159
:1011B000C7010E941B08A1960FB6F894DEBF0FBEB0
:1011C000CDBFDF91CF911F910F91FF90EF90DF90F6
:1011D000CF90BF90AF909F908F90089521153105CB
:1011E00041F4DC01ED91FC910190F081E02D642F40
:1011F00009940C9495089A01462F50E060E070E045
:101200000C94EE08CF93DF938230910510F482E0C6
:1012100090E0E0914F02F091500220E030E0A0E039
:10122000B0E0309739F14081518148175907B8F043
:101230004817590771F482819381109729F013960A
:101240009C938E9312972CC09093500280934F02E0
:1012500027C02115310531F04217530718F0A901B5
:10126000DB0101C0EF019A01BD01DF010280F381C2
:10127000E02DD7CF21153105F9F0281B390B24308B
:10128000310580F48A819B816115710521F0FB0194
:101290009383828304C09093500280934F02FE0197
:1012A000329644C0FE01E20FF31F819391932250C6
:1012B0003109398328833AC020914D0230914E0282
:1012C000232B41F4209102013091030130934E020F
:1012D00020934D022091000130910101211531052B
:1012E00041F42DB73EB74091040150910501241BF4
:1012F000350BE0914D02F0914E02E217F307A0F496
:101300002E1B3F0B2817390778F0AC014E5F5F4F5B
:101310002417350748F04E0F5F1F50934E0240933D
:101320004D028193919302C0E0E0F0E0CF01DF91A4
:10133000CF910895CF93DF93009709F487C0FC0104
:10134000329713821282C0914F02D091500220979F
:1013500081F420813181280F391F80914D029091B5
:101360004E028217930779F5F0934E02E0934D02F7
:101370006DC0DE0120E030E0AE17BF0750F41296DA
:101380004D915C9113979D014115510509F1DA01C9
:10139000F3CFB383A28340815181840F951F8A17B5
:1013A0009B0771F48D919C911197840F951F029664
:1013B0009183808312968D919C911397938382835E
:1013C0002115310529F4F0935002E0934F023EC0FD
:1013D000D9011396FC93EE9312974D915D91A40F52
:1013E000B51FEA17FB0779F480819181840F951F5F
:1013F0000296D90111969C938E93828193811396C4
:101400009C938E931297E0E0F0E08A819B81009795
:1014100019F0FE01EC01F9CFCE0102962881398145
:10142000820F931F20914D0230914E0228173907E9
:1014300069F4309729F41092500210924F0202C0C2
:1014400013821282D0934E02C0934D02DF91CF914E
:10145000089597FB072E16F4009407D077FD09D066
:101460000E947E0A07FC05D03EF4909581959F4F1F
:101470000895709561957F4F0895A1E21A2EAA1BD9
:10148000BB1BFD010DC0AA1FBB1FEE1FFF1FA21734
:10149000B307E407F50720F0A21BB30BE40BF50B31
:1014A000661F771F881F991F1A9469F760957095BA
:1014B000809590959B01AC01BD01CF010895052E4B
:1014C00097FB1EF400940E94760A57FD07D00E94F5
:1014D0003D0A07FC03D04EF40C94760A50954095D3
:1014E000309521953F4F4F4F5F4F089590958095D0
:1014F000709561957F4F8F4F9F4F0895AA1BBB1B1F
:1015000051E107C0AA1FBB1FA617B70710F0A61B03
:10151000B70B881F991F5A95A9F780959095BC0124
:10152000CD010895EE0FFF1F0590F491E02D099471
:10153000F999FECF92BD81BDF89A992780B508959B
:10154000262FF999FECF1FBA92BD81BD20BD0FB6DF
:10155000F894FA9AF99A0FBE01960895F894FFCF7D
:101560000000510280004442472073746570706926
:101570006E673000444247207374657070696E670F
:101580003100444247207374657070696E673200A1
:10159000444247207374657070696E617765666652
:1015A00066666666666666666666666666666666DB
:1015B00066666666666666666666666666666666CB
:1015C00066666666666666666666666666666733ED
:1015D00000444247207374657070696E67000000B4
:0E15E00000006006F3070606330618065506DF
:00000001FF
